{
  "_format": "hh-sol-artifact-1",
  "contractName": "NomadModule",
  "sourceName": "contracts/NomadModule.sol",
  "abi": [
    {
      "inputs": [
        {
          "internalType": "address",
          "name": "_owner",
          "type": "address"
        },
        {
          "internalType": "address",
          "name": "_avatar",
          "type": "address"
        },
        {
          "internalType": "address",
          "name": "_target",
          "type": "address"
        },
        {
          "internalType": "address",
          "name": "_manager",
          "type": "address"
        },
        {
          "internalType": "address",
          "name": "_controller",
          "type": "address"
        },
        {
          "internalType": "uint32",
          "name": "_controllerDomain",
          "type": "uint32"
        }
      ],
      "stateMutability": "nonpayable",
      "type": "constructor"
    },
    {
      "inputs": [
        {
          "internalType": "address",
          "name": "guard_",
          "type": "address"
        }
      ],
      "name": "NotIERC165Compliant",
      "type": "error"
    },
    {
      "anonymous": false,
      "inputs": [
        {
          "indexed": true,
          "internalType": "address",
          "name": "previousAvatar",
          "type": "address"
        },
        {
          "indexed": true,
          "internalType": "address",
          "name": "newAvatar",
          "type": "address"
        }
      ],
      "name": "AvatarSet",
      "type": "event"
    },
    {
      "anonymous": false,
      "inputs": [
        {
          "indexed": false,
          "internalType": "address",
          "name": "guard",
          "type": "address"
        }
      ],
      "name": "ChangedGuard",
      "type": "event"
    },
    {
      "anonymous": false,
      "inputs": [
        {
          "indexed": true,
          "internalType": "address",
          "name": "previousController",
          "type": "address"
        },
        {
          "indexed": true,
          "internalType": "address",
          "name": "newController",
          "type": "address"
        },
        {
          "indexed": true,
          "internalType": "uint32",
          "name": "previousDomain",
          "type": "uint32"
        },
        {
          "indexed": false,
          "internalType": "uint32",
          "name": "newDomain",
          "type": "uint32"
        }
      ],
      "name": "NomadModuleControllerUpdated",
      "type": "event"
    },
    {
      "anonymous": false,
      "inputs": [
        {
          "indexed": true,
          "internalType": "contract IXAppConnectionManager",
          "name": "previousManager",
          "type": "address"
        },
        {
          "indexed": true,
          "internalType": "contract IXAppConnectionManager",
          "name": "newManager",
          "type": "address"
        }
      ],
      "name": "NomadModuleManagerUpdated",
      "type": "event"
    },
    {
      "anonymous": false,
      "inputs": [
        {
          "indexed": true,
          "internalType": "address",
          "name": "initiator",
          "type": "address"
        },
        {
          "indexed": true,
          "internalType": "address",
          "name": "owner",
          "type": "address"
        },
        {
          "indexed": true,
          "internalType": "address",
          "name": "avatar",
          "type": "address"
        },
        {
          "indexed": false,
          "internalType": "address",
          "name": "target",
          "type": "address"
        }
      ],
      "name": "NomadModuleSetup",
      "type": "event"
    },
    {
      "anonymous": false,
      "inputs": [
        {
          "indexed": true,
          "internalType": "address",
          "name": "previousOwner",
          "type": "address"
        },
        {
          "indexed": true,
          "internalType": "address",
          "name": "newOwner",
          "type": "address"
        }
      ],
      "name": "OwnershipTransferred",
      "type": "event"
    },
    {
      "anonymous": false,
      "inputs": [
        {
          "indexed": true,
          "internalType": "address",
          "name": "previousTarget",
          "type": "address"
        },
        {
          "indexed": true,
          "internalType": "address",
          "name": "newTarget",
          "type": "address"
        }
      ],
      "name": "TargetSet",
      "type": "event"
    },
    {
      "inputs": [],
      "name": "avatar",
      "outputs": [
        {
          "internalType": "address",
          "name": "",
          "type": "address"
        }
      ],
      "stateMutability": "view",
      "type": "function"
    },
    {
      "inputs": [],
      "name": "controller",
      "outputs": [
        {
          "internalType": "address",
          "name": "",
          "type": "address"
        }
      ],
      "stateMutability": "view",
      "type": "function"
    },
    {
      "inputs": [],
      "name": "controllerDomain",
      "outputs": [
        {
          "internalType": "uint32",
          "name": "",
          "type": "uint32"
        }
      ],
      "stateMutability": "view",
      "type": "function"
    },
    {
      "inputs": [],
      "name": "getGuard",
      "outputs": [
        {
          "internalType": "address",
          "name": "_guard",
          "type": "address"
        }
      ],
      "stateMutability": "view",
      "type": "function"
    },
    {
      "inputs": [],
      "name": "guard",
      "outputs": [
        {
          "internalType": "address",
          "name": "",
          "type": "address"
        }
      ],
      "stateMutability": "view",
      "type": "function"
    },
    {
      "inputs": [
        {
          "internalType": "uint32",
          "name": "_origin",
          "type": "uint32"
        },
        {
          "internalType": "uint32",
          "name": "",
          "type": "uint32"
        },
        {
          "internalType": "bytes32",
          "name": "_sender",
          "type": "bytes32"
        },
        {
          "internalType": "bytes",
          "name": "_message",
          "type": "bytes"
        }
      ],
      "name": "handle",
      "outputs": [],
      "stateMutability": "nonpayable",
      "type": "function"
    },
    {
      "inputs": [
        {
          "internalType": "address",
          "name": "_controller",
          "type": "address"
        },
        {
          "internalType": "uint32",
          "name": "_controllerDomain",
          "type": "uint32"
        }
      ],
      "name": "isController",
      "outputs": [
        {
          "internalType": "bool",
          "name": "",
          "type": "bool"
        }
      ],
      "stateMutability": "view",
      "type": "function"
    },
    {
      "inputs": [],
      "name": "manager",
      "outputs": [
        {
          "internalType": "contract IXAppConnectionManager",
          "name": "",
          "type": "address"
        }
      ],
      "stateMutability": "view",
      "type": "function"
    },
    {
      "inputs": [],
      "name": "owner",
      "outputs": [
        {
          "internalType": "address",
          "name": "",
          "type": "address"
        }
      ],
      "stateMutability": "view",
      "type": "function"
    },
    {
      "inputs": [],
      "name": "renounceOwnership",
      "outputs": [],
      "stateMutability": "nonpayable",
      "type": "function"
    },
    {
      "inputs": [
        {
          "internalType": "address",
          "name": "_avatar",
          "type": "address"
        }
      ],
      "name": "setAvatar",
      "outputs": [],
      "stateMutability": "nonpayable",
      "type": "function"
    },
    {
      "inputs": [
        {
          "internalType": "address",
          "name": "_controller",
          "type": "address"
        },
        {
          "internalType": "uint32",
          "name": "_controllerDomain",
          "type": "uint32"
        }
      ],
      "name": "setController",
      "outputs": [],
      "stateMutability": "nonpayable",
      "type": "function"
    },
    {
      "inputs": [
        {
          "internalType": "address",
          "name": "_guard",
          "type": "address"
        }
      ],
      "name": "setGuard",
      "outputs": [],
      "stateMutability": "nonpayable",
      "type": "function"
    },
    {
      "inputs": [
        {
          "internalType": "contract IXAppConnectionManager",
          "name": "_manager",
          "type": "address"
        }
      ],
      "name": "setManager",
      "outputs": [],
      "stateMutability": "nonpayable",
      "type": "function"
    },
    {
      "inputs": [
        {
          "internalType": "address",
          "name": "_target",
          "type": "address"
        }
      ],
      "name": "setTarget",
      "outputs": [],
      "stateMutability": "nonpayable",
      "type": "function"
    },
    {
      "inputs": [
        {
          "internalType": "bytes",
          "name": "initParams",
          "type": "bytes"
        }
      ],
      "name": "setUp",
      "outputs": [],
      "stateMutability": "nonpayable",
      "type": "function"
    },
    {
      "inputs": [],
      "name": "target",
      "outputs": [
        {
          "internalType": "address",
          "name": "",
          "type": "address"
        }
      ],
      "stateMutability": "view",
      "type": "function"
    },
    {
      "inputs": [
        {
          "internalType": "address",
          "name": "newOwner",
          "type": "address"
        }
      ],
      "name": "transferOwnership",
      "outputs": [],
      "stateMutability": "nonpayable",
      "type": "function"
    }
  ],
  "bytecode": "0x60806040523480156200001157600080fd5b5060405162003ab438038062003ab483398181016040528101906200003791906200091c565b6000868686868686604051602001620000569695949392919062000b2f565b604051602081830303815290604052905062000078816200008560201b60201c565b5050505050505062000f6e565b600060019054906101000a900460ff16620000af5760008054906101000a900460ff1615620000c0565b620000bf6200051460201b60201c565b5b62000102576040517f08c379a0000000000000000000000000000000000000000000000000000000008152600401620000f99062000be0565b60405180910390fd5b60008060019054906101000a900460ff16159050801562000153576001600060016101000a81548160ff02191690831515021790555060016000806101000a81548160ff0219169083151502179055505b6000806000806000808780602001905181019062000172919062000880565b9550955095509550955095506200018e6200053260201b60201c565b600073ffffffffffffffffffffffffffffffffffffffff168573ffffffffffffffffffffffffffffffffffffffff16141562000201576040517f08c379a0000000000000000000000000000000000000000000000000000000008152600401620001f89062000c46565b60405180910390fd5b600073ffffffffffffffffffffffffffffffffffffffff168473ffffffffffffffffffffffffffffffffffffffff16141562000274576040517f08c379a00000000000000000000000000000000000000000000000000000000081526004016200026b9062000bbe565b60405180910390fd5b600073ffffffffffffffffffffffffffffffffffffffff168273ffffffffffffffffffffffffffffffffffffffff161415620002e7576040517f08c379a0000000000000000000000000000000000000000000000000000000008152600401620002de9062000c02565b60405180910390fd5b60008163ffffffff16141562000334576040517f08c379a00000000000000000000000000000000000000000000000000000000081526004016200032b9062000c68565b60405180910390fd5b84606660006101000a81548173ffffffffffffffffffffffffffffffffffffffff021916908373ffffffffffffffffffffffffffffffffffffffff16021790555083606760006101000a81548173ffffffffffffffffffffffffffffffffffffffff021916908373ffffffffffffffffffffffffffffffffffffffff16021790555082606860006101000a81548173ffffffffffffffffffffffffffffffffffffffff021916908373ffffffffffffffffffffffffffffffffffffffff16021790555081606960006101000a81548173ffffffffffffffffffffffffffffffffffffffff021916908373ffffffffffffffffffffffffffffffffffffffff16021790555080606960146101000a81548163ffffffff021916908363ffffffff1602179055506200046a866200059660201b60201c565b8473ffffffffffffffffffffffffffffffffffffffff168673ffffffffffffffffffffffffffffffffffffffff163373ffffffffffffffffffffffffffffffffffffffff167f3b24df581e8f4848fc1d5da85acc879ed5b3495a4544452c158e43651abc7aad87604051620004e0919062000b12565b60405180910390a45050505050508015620005105760008060016101000a81548160ff0219169083151502179055505b5050565b60006200052c30620006ac60201b620015e11760201c565b15905090565b600060019054906101000a900460ff1662000584576040517f08c379a00000000000000000000000000000000000000000000000000000000081526004016200057b9062000c8a565b60405180910390fd5b62000594620006cf60201b60201c565b565b620005a66200074360201b60201c565b73ffffffffffffffffffffffffffffffffffffffff16620005cc6200074b60201b60201c565b73ffffffffffffffffffffffffffffffffffffffff161462000625576040517f08c379a00000000000000000000000000000000000000000000000000000000081526004016200061c9062000c24565b60405180910390fd5b600073ffffffffffffffffffffffffffffffffffffffff168173ffffffffffffffffffffffffffffffffffffffff16141562000698576040517f08c379a00000000000000000000000000000000000000000000000000000000081526004016200068f9062000b9c565b60405180910390fd5b620006a9816200077560201b60201c565b50565b6000808273ffffffffffffffffffffffffffffffffffffffff163b119050919050565b600060019054906101000a900460ff1662000721576040517f08c379a0000000000000000000000000000000000000000000000000000000008152600401620007189062000c8a565b60405180910390fd5b62000741620007356200074360201b60201c565b6200077560201b60201c565b565b600033905090565b6000603360009054906101000a900473ffffffffffffffffffffffffffffffffffffffff16905090565b6000603360009054906101000a900473ffffffffffffffffffffffffffffffffffffffff16905081603360006101000a81548173ffffffffffffffffffffffffffffffffffffffff021916908373ffffffffffffffffffffffffffffffffffffffff1602179055508173ffffffffffffffffffffffffffffffffffffffff168173ffffffffffffffffffffffffffffffffffffffff167f8be0079c531659141344cd1fd0a4f28419497f9722a3daafe3b4186f6b6457e060405160405180910390a35050565b6000815190506200084c8162000f20565b92915050565b600081519050620008638162000f3a565b92915050565b6000815190506200087a8162000f54565b92915050565b60008060008060008060c08789031215620008a0576200089f62000d15565b5b6000620008b089828a0162000852565b9650506020620008c389828a0162000852565b9550506040620008d689828a0162000852565b9450506060620008e989828a0162000852565b9350506080620008fc89828a0162000852565b92505060a06200090f89828a0162000869565b9150509295509295509295565b60008060008060008060c087890312156200093c576200093b62000d15565b5b60006200094c89828a016200083b565b96505060206200095f89828a016200083b565b95505060406200097289828a016200083b565b94505060606200098589828a016200083b565b93505060806200099889828a016200083b565b92505060a0620009ab89828a0162000869565b9150509295509295509295565b620009c38162000cbd565b82525050565b6000620009d860268362000cac565b9150620009e58262000d1a565b604082019050919050565b6000620009ff601e8362000cac565b915062000a0c8262000d69565b602082019050919050565b600062000a26602e8362000cac565b915062000a338262000d92565b604082019050919050565b600062000a4d60228362000cac565b915062000a5a8262000de1565b604082019050919050565b600062000a7460208362000cac565b915062000a818262000e30565b602082019050919050565b600062000a9b601e8362000cac565b915062000aa88262000e59565b602082019050919050565b600062000ac260218362000cac565b915062000acf8262000e82565b604082019050919050565b600062000ae9602b8362000cac565b915062000af68262000ed1565b604082019050919050565b62000b0c8162000d05565b82525050565b600060208201905062000b296000830184620009b8565b92915050565b600060c08201905062000b466000830189620009b8565b62000b556020830188620009b8565b62000b646040830187620009b8565b62000b736060830186620009b8565b62000b826080830185620009b8565b62000b9160a083018462000b01565b979650505050505050565b6000602082019050818103600083015262000bb781620009c9565b9050919050565b6000602082019050818103600083015262000bd981620009f0565b9050919050565b6000602082019050818103600083015262000bfb8162000a17565b9050919050565b6000602082019050818103600083015262000c1d8162000a3e565b9050919050565b6000602082019050818103600083015262000c3f8162000a65565b9050919050565b6000602082019050818103600083015262000c618162000a8c565b9050919050565b6000602082019050818103600083015262000c838162000ab3565b9050919050565b6000602082019050818103600083015262000ca58162000ada565b9050919050565b600082825260208201905092915050565b600062000cca8262000ce5565b9050919050565b600062000cde8262000ce5565b9050919050565b600073ffffffffffffffffffffffffffffffffffffffff82169050919050565b600063ffffffff82169050919050565b600080fd5b7f4f776e61626c653a206e6577206f776e657220697320746865207a65726f206160008201527f6464726573730000000000000000000000000000000000000000000000000000602082015250565b7f5461726765742063616e206e6f74206265207a65726f20616464726573730000600082015250565b7f496e697469616c697a61626c653a20636f6e747261637420697320616c72656160008201527f647920696e697469616c697a6564000000000000000000000000000000000000602082015250565b7f436f6e74726f6c6c65722063616e206e6f74206265207a65726f20616464726560008201527f7373000000000000000000000000000000000000000000000000000000000000602082015250565b7f4f776e61626c653a2063616c6c6572206973206e6f7420746865206f776e6572600082015250565b7f4176617461722063616e206e6f74206265207a65726f20616464726573730000600082015250565b7f436f6e74726f6c6c657220446f6d61696e2063616e206e6f74206265207a657260008201527f6f00000000000000000000000000000000000000000000000000000000000000602082015250565b7f496e697469616c697a61626c653a20636f6e7472616374206973206e6f74206960008201527f6e697469616c697a696e67000000000000000000000000000000000000000000602082015250565b62000f2b8162000cbd565b811462000f3757600080fd5b50565b62000f458162000cd1565b811462000f5157600080fd5b50565b62000f5f8162000d05565b811462000f6b57600080fd5b50565b612b368062000f7e6000396000f3fe608060405234801561001057600080fd5b50600436106101165760003560e01c80639302b139116100a2578063d0ebdbe711610071578063d0ebdbe714610295578063d4b83992146102b1578063e19a9dd9146102cf578063f2fde38b146102eb578063f77c47911461030757610116565b80639302b13914610223578063a4f9edbf1461023f578063ab2dc3f51461025b578063c91063891461027757610116565b8063717f8690116100e9578063717f86901461017d578063776d1a01146101ad5780637ceab3b1146101c95780638cc5940a146101e75780638da5cb5b1461020557610116565b8063086cfca81461011b578063481c6a75146101375780635aef7de614610155578063715018a614610173575b600080fd5b61013560048036038101906101309190611c2e565b610325565b005b61013f610467565b60405161014c91906122e6565b60405180910390f35b61015d61048d565b60405161016a9190612167565b60405180910390f35b61017b6104b3565b005b61019760048036038101906101929190611d6b565b61053b565b6040516101a49190612287565b60405180910390f35b6101c760048036038101906101c29190611c2e565b6105bf565b005b6101d1610701565b6040516101de9190612167565b60405180910390f35b6101ef610727565b6040516101fc91906124a1565b60405180910390f35b61020d61073d565b60405161021a9190612167565b60405180910390f35b61023d60048036038101906102389190611d6b565b610767565b005b61025960048036038101906102549190611dd8565b610a2d565b005b61027560048036038101906102709190611e4e565b610e8d565b005b61027f611046565b60405161028c9190612167565b60405180910390f35b6102af60048036038101906102aa9190611e21565b611070565b005b6102b9611265565b6040516102c69190612167565b60405180910390f35b6102e960048036038101906102e49190611c2e565b61128b565b005b61030560048036038101906103009190611c2e565b6114c3565b005b61030f6115bb565b60405161031c9190612167565b60405180910390f35b61032d611604565b73ffffffffffffffffffffffffffffffffffffffff1661034b61073d565b73ffffffffffffffffffffffffffffffffffffffff16146103a1576040517f08c379a0000000000000000000000000000000000000000000000000000000008152600401610398906123c1565b60405180910390fd5b6000606660009054906101000a900473ffffffffffffffffffffffffffffffffffffffff16905081606660006101000a81548173ffffffffffffffffffffffffffffffffffffffff021916908373ffffffffffffffffffffffffffffffffffffffff1602179055508173ffffffffffffffffffffffffffffffffffffffff168173ffffffffffffffffffffffffffffffffffffffff167f52ae88b092de36f87fb43fe794eb1381023b9c1bce563a871154022c63dce34260405160405180910390a35050565b606860009054906101000a900473ffffffffffffffffffffffffffffffffffffffff1681565b606660009054906101000a900473ffffffffffffffffffffffffffffffffffffffff1681565b6104bb611604565b73ffffffffffffffffffffffffffffffffffffffff166104d961073d565b73ffffffffffffffffffffffffffffffffffffffff161461052f576040517f08c379a0000000000000000000000000000000000000000000000000000000008152600401610526906123c1565b60405180910390fd5b610539600061160c565b565b6000606960009054906101000a900473ffffffffffffffffffffffffffffffffffffffff1673ffffffffffffffffffffffffffffffffffffffff168373ffffffffffffffffffffffffffffffffffffffff161480156105b75750606960149054906101000a900463ffffffff1663ffffffff168263ffffffff16145b905092915050565b6105c7611604565b73ffffffffffffffffffffffffffffffffffffffff166105e561073d565b73ffffffffffffffffffffffffffffffffffffffff161461063b576040517f08c379a0000000000000000000000000000000000000000000000000000000008152600401610632906123c1565b60405180910390fd5b6000606760009054906101000a900473ffffffffffffffffffffffffffffffffffffffff16905081606760006101000a81548173ffffffffffffffffffffffffffffffffffffffff021916908373ffffffffffffffffffffffffffffffffffffffff1602179055508173ffffffffffffffffffffffffffffffffffffffff168173ffffffffffffffffffffffffffffffffffffffff167f90cc2f570a6eb594b1580ea3e41247d2d73a55281889e86bd4ec2fc29c7e62d660405160405180910390a35050565b606560009054906101000a900473ffffffffffffffffffffffffffffffffffffffff1681565b606960149054906101000a900463ffffffff1681565b6000603360009054906101000a900473ffffffffffffffffffffffffffffffffffffffff16905090565b61076f611604565b73ffffffffffffffffffffffffffffffffffffffff1661078d61073d565b73ffffffffffffffffffffffffffffffffffffffff16146107e3576040517f08c379a00000000000000000000000000000000000000000000000000000000081526004016107da906123c1565b60405180910390fd5b600073ffffffffffffffffffffffffffffffffffffffff168273ffffffffffffffffffffffffffffffffffffffff161415610853576040517f08c379a000000000000000000000000000000000000000000000000000000000815260040161084a906123a1565b60405180910390fd5b60008163ffffffff16141561089d576040517f08c379a000000000000000000000000000000000000000000000000000000000815260040161089490612421565b60405180910390fd5b6108a7828261053b565b156108e7576040517f08c379a00000000000000000000000000000000000000000000000000000000081526004016108de906123e1565b60405180910390fd5b6000606960149054906101000a900463ffffffff1690506000606960009054906101000a900473ffffffffffffffffffffffffffffffffffffffff16905083606960006101000a81548173ffffffffffffffffffffffffffffffffffffffff021916908373ffffffffffffffffffffffffffffffffffffffff16021790555082606960146101000a81548163ffffffff021916908363ffffffff1602179055508163ffffffff16606960009054906101000a900473ffffffffffffffffffffffffffffffffffffffff1673ffffffffffffffffffffffffffffffffffffffff168273ffffffffffffffffffffffffffffffffffffffff167f4bb6ee44765ea54ae52936f26e55f271eab0420281d65a045f262445ec0b976a606960149054906101000a900463ffffffff16604051610a1f91906124a1565b60405180910390a450505050565b600060019054906101000a900460ff16610a555760008054906101000a900460ff1615610a5e565b610a5d6116d2565b5b610a9d576040517f08c379a0000000000000000000000000000000000000000000000000000000008152600401610a9490612381565b60405180910390fd5b60008060019054906101000a900460ff161590508015610aed576001600060016101000a81548160ff02191690831515021790555060016000806101000a81548160ff0219169083151502179055505b60008060008060008087806020019051810190610b0a9190611c5b565b955095509550955095509550610b1e6116e3565b600073ffffffffffffffffffffffffffffffffffffffff168573ffffffffffffffffffffffffffffffffffffffff161415610b8e576040517f08c379a0000000000000000000000000000000000000000000000000000000008152600401610b8590612401565b60405180910390fd5b600073ffffffffffffffffffffffffffffffffffffffff168473ffffffffffffffffffffffffffffffffffffffff161415610bfe576040517f08c379a0000000000000000000000000000000000000000000000000000000008152600401610bf590612361565b60405180910390fd5b600073ffffffffffffffffffffffffffffffffffffffff168273ffffffffffffffffffffffffffffffffffffffff161415610c6e576040517f08c379a0000000000000000000000000000000000000000000000000000000008152600401610c65906123a1565b60405180910390fd5b60008163ffffffff161415610cb8576040517f08c379a0000000000000000000000000000000000000000000000000000000008152600401610caf90612421565b60405180910390fd5b84606660006101000a81548173ffffffffffffffffffffffffffffffffffffffff021916908373ffffffffffffffffffffffffffffffffffffffff16021790555083606760006101000a81548173ffffffffffffffffffffffffffffffffffffffff021916908373ffffffffffffffffffffffffffffffffffffffff16021790555082606860006101000a81548173ffffffffffffffffffffffffffffffffffffffff021916908373ffffffffffffffffffffffffffffffffffffffff16021790555081606960006101000a81548173ffffffffffffffffffffffffffffffffffffffff021916908373ffffffffffffffffffffffffffffffffffffffff16021790555080606960146101000a81548163ffffffff021916908363ffffffff160217905550610de6866114c3565b8473ffffffffffffffffffffffffffffffffffffffff168673ffffffffffffffffffffffffffffffffffffffff163373ffffffffffffffffffffffffffffffffffffffff167f3b24df581e8f4848fc1d5da85acc879ed5b3495a4544452c158e43651abc7aad87604051610e5a9190612167565b60405180910390a45050505050508015610e895760008060016101000a81548160ff0219169083151502179055505b5050565b338483606860009054906101000a900473ffffffffffffffffffffffffffffffffffffffff1673ffffffffffffffffffffffffffffffffffffffff16635190bc53846040518263ffffffff1660e01b8152600401610eeb9190612167565b60206040518083038186803b158015610f0357600080fd5b505afa158015610f17573d6000803e3d6000fd5b505050506040513d601f19601f82011682018060405250810190610f3b9190611dab565b610f7a576040517f08c379a0000000000000000000000000000000000000000000000000000000008152600401610f7190612441565b60405180910390fd5b60008160001c9050610f8c818461053b565b610fcb576040517f08c379a0000000000000000000000000000000000000000000000000000000008152600401610fc290612341565b60405180910390fd5b60008060008088806020019051810190610fe59190611ce8565b9350935093509350610ff98484848461173c565b611038576040517f08c379a000000000000000000000000000000000000000000000000000000000815260040161102f90612481565b60405180910390fd5b505050505050505050505050565b6000606560009054906101000a900473ffffffffffffffffffffffffffffffffffffffff16905090565b611078611604565b73ffffffffffffffffffffffffffffffffffffffff1661109661073d565b73ffffffffffffffffffffffffffffffffffffffff16146110ec576040517f08c379a00000000000000000000000000000000000000000000000000000000081526004016110e3906123c1565b60405180910390fd5b8073ffffffffffffffffffffffffffffffffffffffff16606860009054906101000a900473ffffffffffffffffffffffffffffffffffffffff1673ffffffffffffffffffffffffffffffffffffffff16141561117d576040517f08c379a000000000000000000000000000000000000000000000000000000000815260040161117490612321565b60405180910390fd5b6000606860009054906101000a900473ffffffffffffffffffffffffffffffffffffffff16905081606860006101000a81548173ffffffffffffffffffffffffffffffffffffffff021916908373ffffffffffffffffffffffffffffffffffffffff160217905550606860009054906101000a900473ffffffffffffffffffffffffffffffffffffffff1673ffffffffffffffffffffffffffffffffffffffff168173ffffffffffffffffffffffffffffffffffffffff167f0f63fbcac6333fa78e43341fb0b50cfe7e299e18091be090a068ac89488d3ac760405160405180910390a35050565b606760009054906101000a900473ffffffffffffffffffffffffffffffffffffffff1681565b611293611604565b73ffffffffffffffffffffffffffffffffffffffff166112b161073d565b73ffffffffffffffffffffffffffffffffffffffff1614611307576040517f08c379a00000000000000000000000000000000000000000000000000000000081526004016112fe906123c1565b60405180910390fd5b600073ffffffffffffffffffffffffffffffffffffffff168173ffffffffffffffffffffffffffffffffffffffff1614611426578073ffffffffffffffffffffffffffffffffffffffff166301ffc9a77fe6d7a83a000000000000000000000000000000000000000000000000000000006040518263ffffffff1660e01b815260040161139491906122cb565b60206040518083038186803b1580156113ac57600080fd5b505afa1580156113c0573d6000803e3d6000fd5b505050506040513d601f19601f820116820180604052508101906113e49190611dab565b61142557806040517fb16ea67e00000000000000000000000000000000000000000000000000000000815260040161141c9190612167565b60405180910390fd5b5b80606560006101000a81548173ffffffffffffffffffffffffffffffffffffffff021916908373ffffffffffffffffffffffffffffffffffffffff1602179055507f1151116914515bc0891ff9047a6cb32cf902546f83066499bcf8ba33d2353fa2606560009054906101000a900473ffffffffffffffffffffffffffffffffffffffff166040516114b89190612167565b60405180910390a150565b6114cb611604565b73ffffffffffffffffffffffffffffffffffffffff166114e961073d565b73ffffffffffffffffffffffffffffffffffffffff161461153f576040517f08c379a0000000000000000000000000000000000000000000000000000000008152600401611536906123c1565b60405180910390fd5b600073ffffffffffffffffffffffffffffffffffffffff168173ffffffffffffffffffffffffffffffffffffffff1614156115af576040517f08c379a00000000000000000000000000000000000000000000000000000000081526004016115a690612301565b60405180910390fd5b6115b88161160c565b50565b606960009054906101000a900473ffffffffffffffffffffffffffffffffffffffff1681565b6000808273ffffffffffffffffffffffffffffffffffffffff163b119050919050565b600033905090565b6000603360009054906101000a900473ffffffffffffffffffffffffffffffffffffffff16905081603360006101000a81548173ffffffffffffffffffffffffffffffffffffffff021916908373ffffffffffffffffffffffffffffffffffffffff1602179055508173ffffffffffffffffffffffffffffffffffffffff168173ffffffffffffffffffffffffffffffffffffffff167f8be0079c531659141344cd1fd0a4f28419497f9722a3daafe3b4186f6b6457e060405160405180910390a35050565b60006116dd306115e1565b15905090565b600060019054906101000a900460ff16611732576040517f08c379a000000000000000000000000000000000000000000000000000000000815260040161172990612461565b60405180910390fd5b61173a611a30565b565b60008073ffffffffffffffffffffffffffffffffffffffff16606560009054906101000a900473ffffffffffffffffffffffffffffffffffffffff1673ffffffffffffffffffffffffffffffffffffffff161461186d57606560009054906101000a900473ffffffffffffffffffffffffffffffffffffffff1673ffffffffffffffffffffffffffffffffffffffff166375f0bb528686868660008060008060006040518060400160405280600281526020017f3078000000000000000000000000000000000000000000000000000000000000815250336040518c63ffffffff1660e01b815260040161183a9b9a999897969594939291906121ce565b600060405180830381600087803b15801561185457600080fd5b505af1158015611868573d6000803e3d6000fd5b505050505b606760009054906101000a900473ffffffffffffffffffffffffffffffffffffffff1673ffffffffffffffffffffffffffffffffffffffff1663468721a7868686866040518563ffffffff1660e01b81526004016118ce9493929190612182565b602060405180830381600087803b1580156118e857600080fd5b505af11580156118fc573d6000803e3d6000fd5b505050506040513d601f19601f820116820180604052508101906119209190611dab565b9050600073ffffffffffffffffffffffffffffffffffffffff16606560009054906101000a900473ffffffffffffffffffffffffffffffffffffffff1673ffffffffffffffffffffffffffffffffffffffff1614611a2857606560009054906101000a900473ffffffffffffffffffffffffffffffffffffffff1673ffffffffffffffffffffffffffffffffffffffff1663932713687f3078000000000000000000000000000000000000000000000000000000000000836040518363ffffffff1660e01b81526004016119f59291906122a2565b600060405180830381600087803b158015611a0f57600080fd5b505af1158015611a23573d6000803e3d6000fd5b505050505b949350505050565b600060019054906101000a900460ff16611a7f576040517f08c379a0000000000000000000000000000000000000000000000000000000008152600401611a7690612461565b60405180910390fd5b611a8f611a8a611604565b61160c565b565b6000611aa4611a9f846124e1565b6124bc565b905082815260208101848484011115611ac057611abf612722565b5b611acb84828561264c565b509392505050565b6000611ae6611ae1846124e1565b6124bc565b905082815260208101848484011115611b0257611b01612722565b5b611b0d84828561265b565b509392505050565b600081359050611b2481612a4f565b92915050565b600081519050611b3981612a66565b92915050565b600081519050611b4e81612a7d565b92915050565b600081359050611b6381612a94565b92915050565b600082601f830112611b7e57611b7d61271d565b5b8135611b8e848260208601611a91565b91505092915050565b600082601f830112611bac57611bab61271d565b5b8151611bbc848260208601611ad3565b91505092915050565b600081359050611bd481612aab565b92915050565b600081519050611be981612ac2565b92915050565b600081519050611bfe81612ad2565b92915050565b600081359050611c1381612ae9565b92915050565b600081519050611c2881612ae9565b92915050565b600060208284031215611c4457611c4361272c565b5b6000611c5284828501611b15565b91505092915050565b60008060008060008060c08789031215611c7857611c7761272c565b5b6000611c8689828a01611b2a565b9650506020611c9789828a01611b2a565b9550506040611ca889828a01611b2a565b9450506060611cb989828a01611b2a565b9350506080611cca89828a01611b2a565b92505060a0611cdb89828a01611c19565b9150509295509295509295565b60008060008060808587031215611d0257611d0161272c565b5b6000611d1087828801611b2a565b9450506020611d2187828801611bef565b935050604085015167ffffffffffffffff811115611d4257611d41612727565b5b611d4e87828801611b97565b9250506060611d5f87828801611bda565b91505092959194509250565b60008060408385031215611d8257611d8161272c565b5b6000611d9085828601611b15565b9250506020611da185828601611c04565b9150509250929050565b600060208284031215611dc157611dc061272c565b5b6000611dcf84828501611b3f565b91505092915050565b600060208284031215611dee57611ded61272c565b5b600082013567ffffffffffffffff811115611e0c57611e0b612727565b5b611e1884828501611b69565b91505092915050565b600060208284031215611e3757611e3661272c565b5b6000611e4584828501611bc5565b91505092915050565b60008060008060808587031215611e6857611e6761272c565b5b6000611e7687828801611c04565b9450506020611e8787828801611c04565b9350506040611e9887828801611b54565b925050606085013567ffffffffffffffff811115611eb957611eb8612727565b5b611ec587828801611b69565b91505092959194509250565b611eda81612551565b82525050565b611ee98161253f565b82525050565b611ef881612563565b82525050565b611f078161256f565b82525050565b611f1681612579565b82525050565b6000611f2782612512565b611f31818561251d565b9350611f4181856020860161265b565b611f4a81612731565b840191505092915050565b611f5e81612604565b82525050565b611f6d81612628565b82525050565b611f7c8161263a565b82525050565b6000611f8f60268361252e565b9150611f9a82612742565b604082019050919050565b6000611fb260238361252e565b9150611fbd82612791565b604082019050919050565b6000611fd560178361252e565b9150611fe0826127e0565b602082019050919050565b6000611ff8601e8361252e565b915061200382612809565b602082019050919050565b600061201b602e8361252e565b915061202682612832565b604082019050919050565b600061203e60228361252e565b915061204982612881565b604082019050919050565b600061206160208361252e565b915061206c826128d0565b602082019050919050565b6000612084601e8361252e565b915061208f826128f9565b602082019050919050565b60006120a7601e8361252e565b91506120b282612922565b602082019050919050565b60006120ca60218361252e565b91506120d58261294b565b604082019050919050565b60006120ed601e8361252e565b91506120f88261299a565b602082019050919050565b6000612110602b8361252e565b915061211b826129c3565b604082019050919050565b600061213360198361252e565b915061213e82612a12565b602082019050919050565b612152816125ea565b82525050565b612161816125f4565b82525050565b600060208201905061217c6000830184611ee0565b92915050565b60006080820190506121976000830187611ee0565b6121a46020830186612149565b81810360408301526121b68185611f1c565b90506121c56060830184611f64565b95945050505050565b6000610160820190506121e4600083018e611ee0565b6121f1602083018d612149565b8181036040830152612203818c611f1c565b9050612212606083018b611f64565b61221f608083018a611f73565b61222c60a0830189611f73565b61223960c0830188611f73565b61224660e0830187611ee0565b612254610100830186611ed1565b8181036101208301526122678185611f1c565b9050612277610140830184611ee0565b9c9b505050505050505050505050565b600060208201905061229c6000830184611eef565b92915050565b60006040820190506122b76000830185611efe565b6122c46020830184611eef565b9392505050565b60006020820190506122e06000830184611f0d565b92915050565b60006020820190506122fb6000830184611f55565b92915050565b6000602082019050818103600083015261231a81611f82565b9050919050565b6000602082019050818103600083015261233a81611fa5565b9050919050565b6000602082019050818103600083015261235a81611fc8565b9050919050565b6000602082019050818103600083015261237a81611feb565b9050919050565b6000602082019050818103600083015261239a8161200e565b9050919050565b600060208201905081810360008301526123ba81612031565b9050919050565b600060208201905081810360008301526123da81612054565b9050919050565b600060208201905081810360008301526123fa81612077565b9050919050565b6000602082019050818103600083015261241a8161209a565b9050919050565b6000602082019050818103600083015261243a816120bd565b9050919050565b6000602082019050818103600083015261245a816120e0565b9050919050565b6000602082019050818103600083015261247a81612103565b9050919050565b6000602082019050818103600083015261249a81612126565b9050919050565b60006020820190506124b66000830184612158565b92915050565b60006124c66124d7565b90506124d2828261268e565b919050565b6000604051905090565b600067ffffffffffffffff8211156124fc576124fb6126ee565b5b61250582612731565b9050602081019050919050565b600081519050919050565b600082825260208201905092915050565b600082825260208201905092915050565b600061254a826125ca565b9050919050565b600061255c826125ca565b9050919050565b60008115159050919050565b6000819050919050565b60007fffffffff0000000000000000000000000000000000000000000000000000000082169050919050565b60006125b08261253f565b9050919050565b60008190506125c582612a3b565b919050565b600073ffffffffffffffffffffffffffffffffffffffff82169050919050565b6000819050919050565b600063ffffffff82169050919050565b600061260f82612616565b9050919050565b6000612621826125ca565b9050919050565b6000612633826125b7565b9050919050565b6000612645826125ea565b9050919050565b82818337600083830152505050565b60005b8381101561267957808201518184015260208101905061265e565b83811115612688576000848401525b50505050565b61269782612731565b810181811067ffffffffffffffff821117156126b6576126b56126ee565b5b80604052505050565b7f4e487b7100000000000000000000000000000000000000000000000000000000600052602160045260246000fd5b7f4e487b7100000000000000000000000000000000000000000000000000000000600052604160045260246000fd5b600080fd5b600080fd5b600080fd5b600080fd5b6000601f19601f8301169050919050565b7f4f776e61626c653a206e6577206f776e657220697320746865207a65726f206160008201527f6464726573730000000000000000000000000000000000000000000000000000602082015250565b7f5265706c696361206164647265737320616c72656164792073657420746f207460008201527f6869730000000000000000000000000000000000000000000000000000000000602082015250565b7f556e617574686f72697a656420636f6e74726f6c6c6572000000000000000000600082015250565b7f5461726765742063616e206e6f74206265207a65726f20616464726573730000600082015250565b7f496e697469616c697a61626c653a20636f6e747261637420697320616c72656160008201527f647920696e697469616c697a6564000000000000000000000000000000000000602082015250565b7f436f6e74726f6c6c65722063616e206e6f74206265207a65726f20616464726560008201527f7373000000000000000000000000000000000000000000000000000000000000602082015250565b7f4f776e61626c653a2063616c6c6572206973206e6f7420746865206f776e6572600082015250565b7f636f6e74726f6c6c657220616c72656164792073657420746f20746869730000600082015250565b7f4176617461722063616e206e6f74206265207a65726f20616464726573730000600082015250565b7f436f6e74726f6c6c657220446f6d61696e2063616e206e6f74206265207a657260008201527f6f00000000000000000000000000000000000000000000000000000000000000602082015250565b7f63616c6c6572206d75737420626520612076616c6964207265706c6963610000600082015250565b7f496e697469616c697a61626c653a20636f6e7472616374206973206e6f74206960008201527f6e697469616c697a696e67000000000000000000000000000000000000000000602082015250565b7f4d6f64756c65207472616e73616374696f6e206661696c656400000000000000600082015250565b60028110612a4c57612a4b6126bf565b5b50565b612a588161253f565b8114612a6357600080fd5b50565b612a6f81612551565b8114612a7a57600080fd5b50565b612a8681612563565b8114612a9157600080fd5b50565b612a9d8161256f565b8114612aa857600080fd5b50565b612ab4816125a5565b8114612abf57600080fd5b50565b60028110612acf57600080fd5b50565b612adb816125ea565b8114612ae657600080fd5b50565b612af2816125f4565b8114612afd57600080fd5b5056fea26469706673582212208b03f6bc3ac465d6c9dfc34a70c3a7ad59f2b9e5147624866cf99953039f624c64736f6c63430008060033",
  "linkReferences": {},
  "deployedLinkReferences": {}
}